:020000040800F2
:1000000000500020113A0008990C00089B0C0008D1
:100010009D0C00089F0C0008A10C000800000000C7
:10002000000000000000000000000000A30C000819
:10003000A50C000800000000A70C0008A90C00088F
:10004000593A0008593A0008593A0008593A000844
:10005000593A0008593A0008593A0008593A000834
:10006000593A0008593A0008593A0008593A000824
:10007000593A0008593A0008593A0008593A000814
:10008000593A0008593A0008593A0008593A000804
:10009000593A0008593A0008593A0008B10C0008CA
:1000A000593A0008593A0008593A0008593A0008E4
:1000B000BD0C0008CD0C0008DD0C0008593A000802
:1000C000593A0008593A0008593A0008593A0008C4
:1000D000593A0008593A0008593A0008ED0C00084E
:1000E000FD0C0008593A0008593A000800000000C9
:1000F0000000000000000000000000000000000000
:0C01000000000000000000005FF808F1A3
:10010C004FF0FF0C1CEAD0521EBF1CEAD15392EAEE
:10011C000C0F93EA0C0F6FD01A4480EA010C4002CA
:10012C0018BF5FEA41211ED04FF0006343EA501024
:10013C0043EA5111A0FB01310CF00040B1F5000F66
:10014C003EBF490041EAD3715B0040EA010062F115
:10015C007F02FD2A1DD8B3F1004F40EBC25008BFFF
:10016C0020F00100704790F0000F0CF0004C08BF1D
:10017C0049024CEA502040EA51207F3AC2BFD2F1EA
:10018C00FF0340EAC250704740F400004FF00003F8
:10019C00013A5DDC12F1190FDCBF00F00040704732
:1001AC00C2F10002410021FA02F1C2F1200200FA70
:1001BC0002FC5FEA310040F1000053EA4C0308BF37
:1001CC0020EADC70704792F0000F00F0004C02BF88
:1001DC00400010F4000F013AF9D040EA0C0093F003
:1001EC00000F01F0004C02BF490011F4000F013B5D
:1001FC00F9D041EA0C018FE70CEAD15392EA0C0FCB
:10020C0018BF93EA0C0F0AD030F0004C18BF31F035
:10021C00004CD8D180EA010000F00040704790F00B
:10022C00000F17BF90F0004F084691F0000F91F0AF
:10023C00004F14D092EA0C0F01D142020FD193EA75
:10024C000C0F03D14B0218BF084608D180EA0100FD
:10025C0000F0004040F0FE4040F40000704740F0D9
:10026C00FE4040F44000704780F0004002E000BFC8
:10027C0081F0004142001FBF5FEA410392EA030F85
:10028C007FEA226C7FEA236C6AD04FEA1262D2EBCF
:10029C001363C1BFD218414048404140B8BF5B42D4
:1002AC00192B88BF704710F0004F40F4000020F06D
:1002BC007F4018BF404211F0004F41F4000121F083
:1002CC007F4118BF494292EA030F3FD0A2F10102CD
:1002DC0041FA03FC10EB0C00C3F1200301FA03F10B
:1002EC0000F0004302D5494260EB4000B0F5000F2E
:1002FC0013D3B0F1807F06D340084FEA310102F1ED
:10030C000102FE2A51D2B1F1004F40EBC25008BF9E
:10031C0020F0010040EA03007047490040EB000068
:10032C00013A28BFB0F5000FEDD2B0FA80FCACF169
:10033C00080CB2EB0C0200FA0CF0AABF00EBC25096
:10034C0052421843BCBFD0401843704792F0000F84
:10035C0081F4000106BF80F400000132013BB5E7D7
:10036C004FEA41037FEA226C18BF7FEA236C21D04D
:10037C0092EA030F04D092F0000F08BF08467047B2
:10038C0090EA010F1CBF0020704712F07F4F04D180
:10039C00400028BF40F00040704712F100723CBF93
:1003AC0000F50000704700F0004343F0FE4040F4BD
:1003BC00000070477FEA226216BF08467FEA23637B
:1003CC000146420206BF5FEA412390EA010F40F466
:1003DC00800070474FF0000304E000BF10F00043B2
:1003EC0048BF40425FEA000C08BF704743F0964399
:1003FC0001464FF000001CE050EA010208BF7047B4
:10040C004FF000030AE000BF50EA010208BF70473A
:10041C0011F0004302D5404261EB41015FEA010C4F
:10042C0002BF84460146002043F0B64308BFA3F147
:10043C008053A3F50003BCFA8CF2083AA3EBC25329
:10044C0010DB01FA02FC634400FA02FCC2F1200248
:10045C00BCF1004F20FA02F243EB020008BF20F07F
:10046C000100704702F1200201FA02FCC2F12002E5
:10047C0050EA4C0021FA02F243EB020008BF20EADA
:10048C00DC70704710B5054C237833B9044B13B1AD
:10049C000448AFF300800123237010BDB00000208E
:1004AC0000000000D03A000808B5034B1BB103490B
:1004BC000348AFF3008008BD00000000B40000202A
:1004CC00D03A000872B6FEE700B591B0002309934C
:1004DC000B930C93019302930393049305930121C3
:1004EC0006914FF48032079208930A9102230D93E0
:1004FC000E924FF480230F9306A800F08FFE80B964
:10050C000F2301930223029380230393002304936C
:10051C000593012101A801F0C5F820B911B05DF8CF
:10052C0004FBFFF7CFFFFFF7CDFF000000B583B052
:10053C0000F026FEFFF7C8FF00F0B8F800F03CF919
:10054C0000F0D4FA00F004FA00F042FB00F094F949
:10055C0000F0C8F94C4C01224FF40071204601F018
:10056C008DFA01224FF48071204601F087FA474B37
:10057C0000934FF4E133464A0221002002F0A8FE1A
:10058C0002F000FF06E003F05FF8142000F01CFE00
:10059C0002F00AFF3F4A13883F490B6051883F4ADB
:1005AC001160013B052BF0D801A252F823F000BFDB
:1005BC00D50500081F0600089305000897050008DC
:1005CC006906000879060008354C002240212046B7
:1005DC0001F054FA00222021204601F04FFA0122AA
:1005EC004FF40071204601F049FA01224FF480715A
:1005FC00204601F043FA294B1B68012B06D0274BF0
:10060C001B68022BC1D103F065F8BEE703F042F87A
:10061C00F5E7234C00224FF40071204601F02EFA2E
:10062C0000224FF48071204601F028FA012240216B
:10063C00204601F023FA01222021204601F01EFA67
:10064C00164B1B68032B06D0144B1B68042B9CD138
:10065C0003F0A0F899E703F07DF8F5E702F0F4FF5A
:10066C0003F0D8F80B4B00221A808EE7042002F01E
:10067C00B9FF01460B4B18600C2002F0CFFF054B65
:10068C009A89094B1A6080E700080140C4010020D8
:10069C00E40200204C0400205801002068010020D6
:1006AC00000C0140D0000020CC0000202DE9F041CE
:1006BC0088B0002404940594069407943A4B9A69E4
:1006CC0042F020029A619A6902F020020192019A8A
:1006DC009A6942F004029A619A6902F00402029249
:1006EC00029A9A6942F008029A619B6903F0080326
:1006FC000393039BDFF8BC80224641F270314046E5
:10070C0001F0BCF9294E22464FF40341304601F06A
:10071C00B5F90323049305940225069504A93046E4
:10072C0001F09CF80C23049305940127069704A967
:10073C00304601F093F841F2703304930597069517
:10074C00079704A9404601F089F84FF4034304933A
:10075C0005970695079704A9304601F07FF84FF4EA
:10076C00E0530493124F0597069504A9304601F007
:10077C0075F8802304930597069504A9404601F06B
:10078C006DF822462146172001F0F4F9172001F0EC
:10079C0025FA22462146282001F0ECF9282001F008
:1007AC001DFA08B0BDE8F0810010024000080140BD
:1007BC0000001110000C014008B50F480F4B0360EE
:1007CC004FF482734360002383604FF40062C26075
:1007DC00036143614FF4007282612022C2610362A3
:1007EC00436283620A23C36200F02CFB00B908BD8C
:1007FC00FFF768FEFBE700BF6C01002000380040EB
:10080C0010B586B0002302930393049305930268FA
:10081C00174B9A4201D006B010BD03F5EC33DA69E0
:10082C0042F48042DA61DA6902F480420092009A62
:10083C009A6942F008029A619B6903F008030193DC
:10084C00019B4FF42043029302230393032305934C
:10085C00084C02A9204601F001F84FF480430293A2
:10086C0000230393049302A9204600F0F7FFD2E77C
:10087C0000380040000C014000B587B00023029303
:10088C000393049305930093019315484FF0804212
:10089C0002601722426083603122C260036183616F
:1008AC0001F0BCFB90B94FF48053029302A90C48A1
:1008BC0001F0DFFC68B900230093019369460848F6
:1008CC0001F0FCFD40B907B05DF804FBFFF7FAFD41
:1008DC00E9E7FFF7F7FDEEE7FFF7F4FDF3E700BFFD
:1008EC009C02002000B587B000230293039304936D
:1008FC000593009301931448144A02601722426036
:10090C0083603122C2600361836101F087FB90B97F
:10091C004FF48053029302A90B4801F0AAFC68B96A
:10092C000023009301936946074801F0C7FD40B9C5
:10093C0007B05DF804FBFFF7C5FDE9E7FFF7C2FD63
:10094C00EEE7FFF7BFFDF3E70C02002000040040C8
:10095C0000B587B00023029303930493059300938F
:10096C0001931448144A02601722426083603122BA
:10097C00C2600361836101F051FB90B94FF4805365
:10098C00029302A90B4801F074FC68B90023009390
:10099C0001936946074801F091FD40B907B05DF835
:1009AC0004FBFFF78FFDE9E7FFF78CFDEEE7FFF7A0
:1009BC0089FDF3E7C4010020000800400268094BE0
:1009CC009A4200D0704782B003F564439A6942F4AE
:1009DC0000629A619B6903F400630193019B02B06E
:1009EC00704700BF002C014000B585B00368B3F11F
:1009FC00804F08D0214A934219D0214A934229D0E2
:100A0C0005B05DF804FB03F50433DA6942F001022A
:100A1C00DA61DB6903F001030193019B00221146AB
:100A2C001C2001F0A7F81C2001F0D8F8E8E7154BC2
:100A3C00DA6942F00202DA61DB6903F00203029325
:100A4C00029B002211461D2001F094F81D2001F09C
:100A5C00C5F8D5E70B4BDA6942F00402DA61DB69C1
:100A6C0003F004030393039B002211461E2001F0A4
:100A7C0081F81E2001F0B2F8C2E700BF000400406C
:100A8C00000800400010024000B587B0002302931C
:100A9C000393049305930268114B9A4202D007B05A
:100AAC005DF804FB03F564439A6942F008029A610D
:100ABC009B6903F008030193019B03230293022318
:100ACC000393059302A9074800F0C8FE064A536831
:100ADC0023F0C00343F0E06343F040035360DEE7D0
:100AEC00002C0140000C01400000014010B592B0F8
:100AFC0000241094119409940A940B940C940D9462
:100B0C000E940F942022214601A802F0D3FF2E4808
:100B1C002E4B03602F234360846042F21073C3603A
:100B2C00046104234361846101F0A4FA002839D1E3
:100B3C000821254801F0CAFA002836D10023109369
:100B4C00119310A9204801F0B9FC002830D1702372
:100B5C00099342F2F7630A9300230B930C930D93C2
:100B6C000E930F93042209A9174801F00FFB10BB39
:100B7C00082209A9144801F009FBF8B900230193D4
:100B8C0002930393049305934FF400520692089337
:100B9C0001A90D4801F0C6FC98B90B48FFF774FF8A
:100BAC0012B010BDFFF78EFCC2E7FFF78BFCC5E758
:100BBC00FFF788FCCBE7FFF785FCD9E7FFF782FC52
:100BCC00DCE7FFF77FFCE8E754020020002C014033
:100BDC0008B50A480A4B03604FF4E1334360002325
:100BEC008360C36003610C2242618361C36101F0C5
:100BFC004BFD00B908BDFFF765FCFBE7E4020020E4
:100C0C000048004030B587B000230293039304934F
:100C1C00059302681B4B9A4201D007B030BD03F517
:100C2C00E433DA6942F48022DA61DA6902F4802270
:100C3C000092009A9A6942F008029A619B6903F04B
:100C4C0008030193019B4FF48063029302230393E7
:100C5C00032305930C4D02A9284600F0FFFD4FF429
:100C6C000063029300240394049402A9284600F024
:100C7C00F5FD22462146272000F07CFF272000F0BE
:100C8C00ADFFCAE700480040000C0140FEE7FEE75C
:100C9C00FEE7FEE7FEE770477047704708B500F0C7
:100CAC0081FA08BD08B5802000F0F8FE08BD0000F0
:100CBC0008B5024801F0BAF808BD00BF9C0200203C
:100CCC0008B5024801F0B2F808BD00BF0C020020C4
:100CDC0008B5024801F0AAF808BD00BFC401002005
:100CEC0008B5024801F0AAFD08BD00BFE4020020CF
:100CFC0008B54FF4806000F0D1FE4FF4006000F0B6
:100D0C00CDFE4FF4805000F0C9FE08BD82B00E4BF2
:100D1C009A6942F001029A619A6902F0010200920A
:100D2C00009ADA6942F08052DA61DB6903F0805391
:100D3C000193019B054A536823F0E06343F0007371
:100D4C00536002B0704700BF001002400000014029
:100D5C002DE9F04782B00546884617461E4600F03E
:100D6C002DFA0A9B1B1A03EB060900F027FA8246A0
:100D7C002A4B1B68C3F3CB3309FB03F301932B689A
:100D8C009C6838EA04030CBF01240024BC4240D008
:100D9C00B6F1FF3FF3D000F011FAA0EB0A00484582
:100DAC000AD2B9F1000F07D0019A02B14A46019B51
:100DBC00013B01939146E2E72A68536823F0E00374
:100DCC0053606B68B3F5827F0BD0AB6AB3F5005FF1
:100DDC0014D0012385F85130002385F850300320BE
:100DEC0018E0AB68B3F5004F02D0B3F5806FECD1CF
:100DFC002A68136823F040031360E6E72A68136837
:100E0C0023F4005313602A68136843F400531360EF
:100E1C00DFE7002002B0BDE8F08700BF080000202B
:100E2C0010B582B004460B46009200228021FFF7D9
:100E3C008FFF08B902B010BD636D43F020036365EA
:100E4C000320F7E7002856D010B50446436A33B99F
:100E5C004368B3F5827F05D00023C36102E0002311
:100E6C00036143610023A36294F85130002B3CD002
:100E7C00022384F851302268136823F04003136076
:100E8C00636803F48273A26802F404421343E268B9
:100E9C0002F400621343226902F0020213436269F6
:100EAC0002F001021343A26902F400721343E269D7
:100EBC0002F038021343226A02F080021343A26A42
:100ECC0002F40052216813430B60638B226803F019
:100EDC00040353602268D36923F40063D3610020B8
:100EEC006065012384F8513010BD84F850302046E1
:100EFC00FFF786FCBCE7012070472DE9F04383B077
:100F0C001F460A9D90F85030012B00F010810446CA
:100F1C0088469146012380F8503000F04FF9064680
:100F2C0094F85130DBB26268012B0AD0B2F5827FA3
:100F3C0040F0E380A268002A40F0E980042B40F0E6
:100F4C00E880B8F1000F00F0E680B9F1000F00F076
:100F5C00E480002F00F0E38094F85130DBB2042BD6
:100F6C0002D0052384F8513000236365C4F838900F
:100F7C00E787A787C4F83080E786A7862364636475
:100F8C0023681A6812F0400F03D11A6842F040022D
:100F9C001A60E368B3F5006F11D063680BB1012FD1
:100FAC000BD1226B236812781A73236B01332363E2
:100FBC00E38E9BB2013B9BB2E38601276BE0636837
:100FCC000BB1012F0BD1226B23681288DA60236BD3
:100FDC0002332363E38E9BB2013B9BB2E386012772
:100FEC001CE023689A6812F0010F0ED0E28F92B2C7
:100FFC005AB1DA68A36B1A80A36B0233A363E38F35
:10100C009BB2013B9BB2E387012700F0D7F8801B12
:10101C00A84203D3B5F1FF3F40F08380E38E9BB22F
:10102C001BB9E38F9BB2002B53D023689A6812F044
:10103C00020FD6D0E28E92B2002AD2D0002FD0D09E
:10104C00226B1288DA60236B02332363E38E9BB22C
:10105C00013B9BB2E3860027C3E723689A6812F032
:10106C00010F0ED0E28F92B25AB1DA68A36B1A70EC
:10107C00A36B0133A363E38F9BB2013B9BB2E3876A
:10108C00012700F09BF8831BAB4202D3B5F1FF3F65
:10109C0049D1002D49D0E38E9BB213B9E38F9BB29B
:1010AC00BBB123689A6812F0020FD6D0E28E92B2CE
:1010BC00002AD2D0002FD0D0226B12781A73236B57
:1010CC0001332363E38E9BB2013B9BB2E386002783
:1010DC00C3E7324629462046FFF7A2FE48B9A3686B
:1010EC0063B901932368DA6801929B680193019BB1
:1010FC0004E020236365012000E00220012384F832
:10110C005130002384F8503003B0BDE8F083022046
:10111C00F4E70220F2E70120F0E70120EEE70120DE
:10112C00ECE70320EAE70320E8E70320E6E70220E8
:10113C00EAE7000010B504460E4B18784FF47A73AA
:10114C00B3FBF0F30C4A1068B0FBF3F000F054FD65
:10115C0068B90F2C01D901200AE0002221464FF07A
:10116C00FF3000F007FD054B1C60002000E0012063
:10117C0010BD00BF0000002008000020040000206B
:10118C0008B5074A136843F010031360032000F0FE
:10119C00DFFC0020FFF7CEFFFFF7B8FD002008BDF5
:1011AC0000200240034A1168034B1B780B44136068
:1011BC00704700BF2403002000000020014B18687A
:1011CC00704700BF2403002038B50446FFF7F6FF34
:1011DC000546B4F1FF3F02D0044B1B781C44FFF7CB
:1011EC00EDFF401BA042FAD338BD00BF0000002029
:1011FC0082B0084B1B68084AA2FB03235B0A00FB66
:10120C0003F3019300BF019B5A1E0192002BF9D1ED
:10121C0002B0704708000020D34D6210002800F087
:10122C00F18170B582B00446036813F0010F2CD025
:10123C00AA4B5B6803F00C03042B1DD0A74B5B6817
:10124C0003F00C03082B12D06368B3F5803F41D038
:10125C00002B55D103F1804303F504331A6822F4B3
:10126C0080321A601A6822F480221A6037E09B4B95
:10127C005B6813F4803FE7D0984B1B6813F4003F76
:10128C0003D06368002B00F0BF81236813F0020FBA
:10129C0075D0924B5B6813F00C0F5FD08F4B5B6873
:1012AC0003F00C03082B54D02369002B00F0898029
:1012BC008B4B01221A60FFF781FF0546874B1B6899
:1012CC0013F0020F74D1FFF779FF401B0228F5D9F8
:1012DC0003209EE1814A136843F4803313606368F2
:1012EC0043B3FFF76BFF05467C4B1B6813F4003FC1
:1012FC00CBD1FFF763FF401B6428F5D9032088E1AD
:10130C00B3F5A02F09D0754B1A6822F480321A60FD
:10131C001A6822F480221A60E1E703F18043A3F5F6
:10132C003C331A6842F480221A601A6842F4803204
:10133C001A60D4E7FFF742FF0546684B1B6813F4AD
:10134C00003FA2D0FFF73AFF401B6428F5D90320D9
:10135C005FE1624B5B6813F4803FA5D15F4B1B6868
:10136C0013F0020F03D02369012B40F04F815B4A2D
:10137C00136823F0F803616943EAC103136023681F
:10138C0013F0080F32D0A369002B45D0554B012226
:10139C001A60FFF713FF0546504B5B6A13F0020F00
:1013AC0021D1FFF70BFF401B0228F5D9032030E1B8
:1013BC004A4A136823F0F803616943EAC1031360D6
:1013CC00DDE7474B00221A60FFF7F8FE0546434B5A
:1013DC001B6813F0020FD2D0FFF7F0FE401B02285F
:1013EC00F5D9032015E10120FFF702FF236813F064
:1013FC00040F00F09780394BDB6913F0805F1DD12F
:10140C00364BDA6942F08052DA61DB6903F08053C3
:10141C000193019B012512E0324B00221A60FFF769
:10142C00CDFE05462D4B5B6A13F0020FDED0FFF7A5
:10143C00C5FE401B0228F5D90320EAE000252A4B03
:10144C001B6813F4807F11D0E368012B22D0002B92
:10145C0038D103F1804303F504331A6A22F00102F8
:10146C001A621A6A22F004021A6218E01E4A136801
:10147C0043F480731360FFF7A1FE06461A4B1B68FA
:10148C0013F4807FE0D1FFF799FE801B6428F5D917
:10149C000320BEE0114A136A43F001031362E368B0
:1014AC0073B3FFF78BFE06460C4B1B6A13F0020F4F
:1014BC0037D1FFF783FE801B41F288339842F3D972
:1014CC000320A6E0052B11D0044B1A6A22F001026E
:1014DC001A621A6A22F004021A62E0E70010024053
:1014EC000000424280044242007000404D4B1A6A98
:1014FC0042F004021A621A6A42F001021A62CEE742
:10150C00FFF75CFE0646474B1B6A13F0020F08D030
:10151C00FFF754FE801B41F288339842F3D9032025
:10152C0077E0E5B9E369002B72D03E4A526802F0CD
:10153C000C02082A56D0022B17D03B4B00221A6003
:10154C00FFF73CFE0446374B1B6813F0007F47D077
:10155C00FFF734FE001B0228F5D9032059E0314A6D
:10156C00D36923F08053D361DCE72F4B00221A6040
:10157C00FFF724FE05462B4B1B6813F0007F06D0AB
:10158C00FFF71CFE401B0228F5D9032041E0236A1B
:10159C00B3F5803F1AD023494B6823F47413226AA5
:1015AC00606A024313434B601F4B01221A60FFF722
:1015BC0005FE04461B4B1B6813F0007F0ED1FFF792
:1015CC00FDFD001B0228F5D9032022E0154A5368C3
:1015DC0023F40033A1680B435360DCE7002018E0D0
:1015EC00002016E0012B16D00E4B5B6803F4803103
:1015FC00226A914211D103F47013626A93420ED1A4
:10160C00002006E001207047012002E0012000E0EC
:10161C00002002B070BD0120FBE70120F9E701209A
:10162C00F7E700BF001002406000424286B0184B42
:10163C000FCB0DF1180C0CE90F0040F20123ADF8A3
:10164C000430144B5A6802F00C03042B1AD0082BEC
:10165C001AD1C2F38343634413F8101C12F4803F75
:10166C000CD00C4B5B68C3F34043634413F8143C3D
:10167C00094800FB01F0B0FBF3F006E0074800FB63
:10168C0001F002E0044800E0054806B0704700BFD6
:10169C00E83A0008001002400024F40000093D0064
:1016AC0000127A00002800F0A08070B50D460446A8
:1016BC00524B1B6803F007038B420BD24F4A136843
:1016CC0023F007030B431360136803F007038B42EB
:1016DC0040F08D80236813F0020F17D013F0040F25
:1016EC0004D0474A536843F4E0635360236813F013
:1016FC00080F04D0424A536843F460535360404A85
:10170C00536823F0F003A1680B435360236813F074
:10171C00010F31D06368012B20D0022B25D0384A21
:10172C00126812F0020F64D035494A6822F00302A5
:10173C0013434B60FFF742FD0646314B5B6803F0E9
:10174C000C036268B3EB820F16D0FFF737FD801BDA
:10175C0041F288339842F0D9032045E0284A1268B8
:10176C0012F4003FE0D101203EE0254A126812F04D
:10177C00007FD9D1012037E0204B1B6803F0070311
:10178C00AB420AD91D4A136823F007032B4313609D
:10179C00136803F00703AB422DD1236813F0040F39
:1017AC0006D0174A536823F4E063E1680B43536097
:1017BC00236813F0080F07D0114A536823F46053C1
:1017CC00216943EAC1035360FFF730FF0C4B5B68A0
:1017DC00C3F303130B4AD35CD8400B4B18600B4B71
:1017EC001868FFF7A7FC002070BD0120704701208E
:1017FC00FAE70120F8E70120F6E700BF00200240DD
:10180C0000100240FC3A00080800002004000020F0
:10181C00014B1868704700BF0800002008B5FFF79F
:10182C00F7FF044B5B68C3F30223034AD35CD84035
:10183C0008BD00BF001002400C3B000808B5FFF7C4
:10184C00E7FF044B5B68C3F3C223034AD35CD84065
:10185C0008BD00BF001002400C3B0008F0B482B081
:10186C0000252C46A3E07F4FBB4210D007D97E4FFA
:10187C00BB420CD007F58037BB4208D013E0A7F56C
:10188C008017BB4203D007F57027BB4207D18B688A
:10189C00002B58D0012B51D04261082503E0A7F54D
:1018AC008017BB42F3D0FF2E4FD88446FF2E4FD863
:1018BC00A200DCF800300F27974023EA070305FA53
:1018CC0002F21343CCF800304B6813F0805F6DD0FC
:1018DC00664B9A6942F001029A619B6903F001031D
:1018EC000193019BA208971C614B53F8273004F01D
:1018FC000307BF004FF00F0C0CFA07FC23EA0C0C8B
:10190C005C4B98422AD003F58063984200F08A80A1
:10191C0003F58063984200F0878003F5806398425A
:10192C001AD004231BE0CD68BDE7CD680435BAE7B7
:10193C00CD680835B7E7CD680C35B4E702610825EA
:10194C00B1E70025AFE70425ADE700F1040CADE7E6
:10195C00A4F108029200ACE7032300E00023BB4093
:10196C0043EA0C030232424F47F822304B6813F41F
:10197C00803F5BD0404A1368334313604B6813F4C9
:10198C00003F59D03C4A5368334353604B6813F4BF
:10199C00801F57D0384A9368334393604B6813F4D5
:1019AC00001F55D0344AD3681E43D66001340B68EF
:1019BC0033FA04F252D00122A24003EA020632EAC0
:1019CC000303F3D14B68122B3FF64DAF122B3FF6AE
:1019DC006AAF01A757F823F09B18000833190008C9
:1019EC003D1900084F190008B3180008B318000877
:1019FC00B3180008B3180008B3180008B31800088F
:101A0C00B3180008B3180008B3180008B31800087E
:101A1C00B3180008B3180008B318000837190008E9
:101A2C004319000801239AE7022398E7124A136826
:101A3C0023EA06031360A1E70F4A536823EA06035F
:101A4C005360A3E70C4A936823EA06039360A5E767
:101A5C00094AD36823EA0606D660A7E702B0F0BCB1
:101A6C00704700BF0000221000003110001002402F
:101A7C000000014000080140000401400AB101616E
:101A8C007047090401617047C36801EA030221EA47
:101A9C00030141EA024101617047704708B5054BEB
:101AAC005B69034200D108BD024B5861FFF7F5FF9B
:101ABC00F9E700BF0004014008B590F82130022B73
:101ACC0003D004238363012008BD0268136823F04C
:101ADC000E0313600268136823F00103136003689C
:101AEC00194A934214D0143293421FD014329342A9
:101AFC001ED0143293421ED0143293421ED0143294
:101B0C00934202D04FF0807203E04FF4801200E059
:101B1C0001220E4B5A60012380F82130002380F8FB
:101B2C002030436B6BB198470020CDE71022F0E7D3
:101B3C004FF48072EDE74FF48052EAE74FF48032B5
:101B4C00E7E70020C0E700BF0800024000000240A9
:101B5C00074AD36823F4E0631B041B0C000200F457
:101B6C00E060034343F0BF6343F40033D36070473A
:101B7C0000ED00E030B4174BDB68C3F30223C3F174
:101B8C000704042C28BF04241D1D062D18D9033B63
:101B9C004FF0FF3505FA04F421EA0401994005FAE7
:101BAC0003F322EA0303194300280BDB0901C9B232
:101BBC0000F1604000F5614080F8001330BC7047C4
:101BCC000023E5E700F00F000901C9B2024B1954DC
:101BDC00F4E700BF00ED00E014ED00E0002807DBA7
:101BEC0000F01F02400901239340024A42F82030C2
:101BFC00704700BF00E100E00138B0F1807F0AD2ED
:101C0C00064B5860064AF02182F823100020986099
:101C1C0007221A6070470120704700BF10E000E0F7
:101C2C0000ED00E070B4036A23F001030362036A61
:101C3C004668826922F073020C6844EA020523F0BC
:101C4C0002028B6813430D4CA04209D00B4CA042EE
:101C5C000DD0466085614A684263036270BC704770
:101C6C0023F00803CA68134323F00403EEE726F4B9
:101C7C0040764A6932438E691643EAE7002C0140EC
:101C8C0030B4036A23F480730362036A4568C26943
:101C9C0022F073020C68224323F400738C6843EA2D
:101CAC0004230F4CA04209D00D4CA0420ED045602D
:101CBC00C2614A68C263036230BC704723F400639C
:101CCC00CC6843EA042323F48063EDE725F4405504
:101CDC004C6945EA04158C6945EA0415E7E700BF31
:101CEC00002C014030B4036A23F480530362036A6E
:101CFC004468C26922F4E6420D6842EA052223F4E4
:101D0C0000538D6843EA0533074DA84206D0446062
:101D1C00C2614A680264036230BC704724F4804498
:101D2C004D6944EA8514F2E7002C014030B4036A93
:101D3C00056A25F001050562846924F0F00444EA83
:101D4C00021423F00A030B438461036230BC704716
:101D5C0030B4056A25F0100505628469036A24F421
:101D6C00704444EA023423F0A00343EA0113846173
:101D7C00036230BC7047836823F070030B4343F05D
:101D8C00070383607047000090F83D30DBB2012BF5
:101D9C0027D1022380F83D300268D36843F0010359
:101DAC00D3600368114A934210D0B3F1804F0DD029
:101DBC00A2F59432934209D002F58062934205D089
:101DCC001A6842F001021A60002070479A6802F00B
:101DDC000702062A07D01A6842F001021A60002096
:101DEC007047012070470020704700BF002C014055
:101DFC000268D36823F00103D3600368196A41F2C7
:101E0C001112114208D1196A40F24442114203D115
:101E1C001A6822F001021A60012380F83D3000207C
:101E2C0070477047704770477047704710B504464D
:101E3C0003681A6912F0020F11D0DA6812F0020F5F
:101E4C000DD06FF002021A610123037703689B69BE
:101E5C0013F0030F70D0FFF7E6FF002323772368FE
:101E6C001A6912F0040F12D0DA6812F0040F0ED0B7
:101E7C006FF004021A610223237723689B6913F421
:101E8C00407F5FD02046FFF7CEFF002323772368E7
:101E9C001A6912F0080F12D0DA6812F0080F0ED07F
:101EAC006FF008021A61042323772368DB6913F0AF
:101EBC00030F4ED02046FFF7B6FF0023237723688D
:101ECC001A6912F0100F12D0DA6812F0100F0ED03F
:101EDC006FF010021A61082323772368DB6913F46F
:101EEC00407F3DD02046FFF79EFF002323772368D9
:101EFC001A6912F0010F03D0DA6812F0010F36D113
:101F0C0023681A6912F0800F03D0DA6812F0800F80
:101F1C0034D123681A6912F0400F03D0DA6812F03A
:101F2C00400F32D123681A6912F0200F03D0DA68FF
:101F3C0012F0200F30D110BDFFF774FF2046FFF7D1
:101F4C0073FF8AE72046FFF76DFF2046FFF76CFF13
:101F5C009BE72046FFF766FF2046FFF765FFACE7DF
:101F6C002046FFF75FFF2046FFF75EFFBDE76FF0EF
:101F7C0001021A61204601F01BF8C1E76FF08002E4
:101F8C001A61204600F0F8FAC3E76FF040021A61BC
:101F9C002046FFF74AFFC5E76FF020021A61204682
:101FAC0000F0E9FAC7E7000003681B4A90420AD028
:101FBC00B0F1804F07D0A2F59432904203D002F5D5
:101FCC008062904203D123F070034A681343124A93
:101FDC0090420AD0B0F1804F07D0A2F594329042D3
:101FEC0003D002F58062904203D123F44073CA6897
:101FFC00134323F080034A69134303608B68C36265
:10200C000B688362044B984202D0012343617047F2
:10201C000B690363F9E700BF002C014040B310B516
:10202C00044690F83D30F3B1022384F83D3021464C
:10203C0051F8040BFFF7B8FF012384F8463084F8FD
:10204C003E3084F83F3084F8403084F8413084F8D6
:10205C00423084F8433084F8443084F8453084F8B6
:10206C003D30002010BD80F83C30FEF7BDFCDBE7B6
:10207C000120704740B310B5044690F83D30F3B1E1
:10208C00022384F83D30214651F8040BFFF78CFFF6
:10209C00012384F8463084F83E3084F83F3084F8CD
:1020AC00403084F8413084F8423084F8433084F86E
:1020BC00443084F8453084F83D30002010BD80F861
:1020CC003C30FEF77BFCDBE70120704750B338B5A2
:1020DC000D46044690F83D30FBB1022384F83D30A8
:1020EC00214651F8040BFFF75FFF2268136823F0B9
:1020FC0008031360236819680D431D60012384F8DD
:10210C00463084F83E3084F83F3084F8423084F80E
:10211C00433084F83D30002038BD80F83C30FFF768
:10212C0080FEDAE70120704730B4036A23F0100315
:10213C000362036A4468826922F4E6420D6842EA4B
:10214C00052223F020038D6843EA05130E4DA842A7
:10215C0009D00D4DA8420ED0446082614A6882635A
:10216C00036230BC704723F08003CD6843EA05134B
:10217C0023F04003EDE724F440644D6944EA850400
:10218C008D6944EA8504E7E7002C014038B590F8E6
:10219C003C30012B60D004460D46012380F83C30C6
:1021AC000C2A1AD8DFE802F0071919191D19191988
:1021BC003119191944000068FFF734FD226893693E
:1021CC0043F0080393612268936923F0040393613D
:1021DC002268936929690B439361002084F83C00C1
:1021EC0038BD0068FFF7A0FF2268936943F40063D1
:1021FC0093612268936923F48063936122689369E5
:10220C00296943EA01239361E7E70068FFF738FD8A
:10221C002268D36943F00803D3612268D36923F0A1
:10222C000403D3612268D36929690B43D361D4E7D2
:10223C000068FFF757FD2268D36943F40063D3614C
:10224C002268D36923F48063D3612268D369296936
:10225C0043EA0123D361C0E70220C1E710B48468CC
:10226C0024F47F4442EA03220A432243826010BCD6
:10227C00704790F83C30012B66D010B50446012312
:10228C0080F83C30022380F83D300268936823F4D8
:10229C007F4323F0770393600B68602B40D022D8E8
:1022AC00402B47D00BD9502B0ED1CA684968006817
:1022BC00FFF73CFD50212068FFF75DFD04E0202B6B
:1022CC000CD008D9302B09D0012384F83D300020E4
:1022DC0084F83C0010BD0BB1102BF5D119462068C9
:1022EC00FFF749FDF0E7702B0ED0B3F5005FEBD193
:1022FC00CB684A6889680068FFF7B0FF226893686A
:10230C0043F480439360DFE7CB684A6889680068D0
:10231C00FFF7A4FF2268936843F077039360D3E739
:10232C00CA6849680068FFF713FD60212068FFF751
:10233C0022FDC9E7CA6849680068FFF7F7FC40212D
:10234C002068FFF718FDBFE70220704710B401F0BA
:10235C001F01042303FA01F4036A23EA0403036252
:10236C00036A02FA01F10B43036210BC70470000D0
:10237C0010B50446084659BB94F84230DBB2013B19
:10238C0018BF0123002B57D100283AD1022384F81F
:10239C004230042201462068FFF7D8FF2268536CB4
:1023AC0043F4004353642368254A934239D0B3F174
:1023BC00804F36D0A2F59432934232D002F580622F
:1023CC0093422ED01A6842F001021A60002034E0C9
:1023DC00042908D008290DD094F84530DBB2013B14
:1023EC0018BF0123CEE794F84330DBB2013B18BF92
:1023FC000123C7E794F84430DBB2013B18BF01233B
:10240C00C0E7042805D0082807D0022384F84530FB
:10241C00BFE7022384F84330BBE7022384F844303F
:10242C00B7E79A6802F00702062A07D01A6842F04A
:10243C0001021A60002000E0012010BD0020FCE722
:10244C00002C014038B504460D4600220068FFF709
:10245C007DFF2368196A41F21112114208D1196AE1
:10246C0040F24442114203D15A6C22F400425A64A5
:10247C002368196A41F21112114208D1196A40F20B
:10248C004442114203D11A6822F001021A6025B9A4
:10249C00012384F84230002038BD042D05D0082DCE
:1024AC0007D0012384F84530F5E7012384F8433045
:1024BC00F1E7012384F84430EDE7000090F83C305C
:1024CC00012B2BD030B4012380F83C30022380F850
:1024DC003D3003685C689D6824F070040A682243F0
:1024EC005A6003680E4A93420AD0B3F1804F07D06A
:1024FC00A2F59432934203D002F58062934204D148
:10250C0025F080054A6815439D60012380F83D3015
:10251C00002380F83C30184630BC704702207047CE
:10252C00002C014090F83C30012B22D0012380F884
:10253C003C30CB6823F440738A68134323F48063E4
:10254C004A68134323F400630A68134323F480534B
:10255C000A69134323F400534A69134323F4804359
:10256C00CA69134302685364002380F83C30184650
:10257C00704702207047704770470268D36823F495
:10258C009073D3600268536923F0010353612023D5
:10259C0080F83A30704790F83930DBB2212B01D0FB
:1025AC00022070478368B3F5805F17D0036A5A1C0A
:1025BC0002621A7803685A60C38C9BB2013B9BB2CF
:1025CC00C3844BB90268D36823F08003D3600268DC
:1025DC00D36843F04003D360002070470369002B9D
:1025EC00E4D1036A1B880268C3F308035360036ACF
:1025FC0002330362E0E7000010B504460268136979
:10260C0023F44053C1680B4313618368026913437D
:10261C0042691A430168CB6823F4B05323F00C03CE
:10262C001343CB600268536923F4407381690B43F5
:10263C0053610268124B9A421FD0FFF7EFF800EB80
:10264C00800303EB830362689200B3FBF2F20D4844
:10265C00A0FB02314909642303FB11231B01323314
:10266C00A0FB03235B0903F0F00202EB011203F061
:10267C000F03216813448B6010BDFFF7DFF8DEE712
:10268C00003801401F85EB5158B310B5044690F843
:10269C0039300BB3242384F839302268D36823F4FF
:1026AC000053D3602046FFF7A7FF2268136923F479
:1026BC00904313612268536923F02A035361226803
:1026CC00D36843F40053D3600020E063202384F8E4
:1026DC00393084F83A3010BD80F83830FEF792FA71
:1026EC00D8E70120704790F83930DBB2202B16D197
:1026FC00B9B1C2B190F83830012B16D00162828486
:10270C00C2840023C363212280F8392080F838303A
:10271C000168CA6842F08002CA60184670470220FD
:10272C00704701207047012070470220704790F8D5
:10273C003A30DBB2202B20D109B312B390F83830E9
:10274C00012B20D081628285C2850023C3632222A3
:10275C0080F83A2080F838300168CA6842F48072F8
:10276C00CA6001684A6942F001024A610168CA689C
:10277C0042F02002CA6018467047022070470120C0
:10278C007047012070470220704708B50168CA687D
:10279C0022F04002CA60202280F8392000F0D8FBD9
:1027AC00002008BD08B590F83A30DBB2222B41D19D
:1027BC008368B3F5805F14D0826AB3F5805F02D072
:1027CC00E3B90369D3B903685B681370836A013397
:1027DC008362C38D9BB2013B9BB2C385A3B1002026
:1027EC0008BD0269002AE7D1826A03685B68C3F3FB
:1027FC0008031380836A02338362EAE703685B6829
:10280C0003F07F031370E1E70268D36823F0200321
:10281C00D3600268D36823F48073D3600268536971
:10282C0023F001035361202380F83A3000F078FB49
:10283C000020D5E70220D3E77047000010B504460E
:10284C0002681368D168526913F00F0005D113F0B8
:10285C00200F02D011F0200F13D128B112F0010279
:10286C0013D111F4907F10D113F0800F02D011F01E
:10287C00800F6CD113F0400F02D011F0400F6AD1D1
:10288C0010BD2046FFF78EFFFAE713F0010F06D0BC
:10289C0011F4807F03D0E06B40F00100E06313F093
:1028AC00040F04D01AB1E06B40F00200E06313F0A7
:1028BC00020F04D01AB1E06B40F00400E06313F097
:1028CC00080F07D011F0200F00D11AB1E26B42F0C3
:1028DC000802E263E26B002AD2D013F0200F02D080
:1028EC0011F0200F21D123685B6903F04003E26BE8
:1028FC0012F0080F00D123B32046FFF73EFE2368E9
:10290C005A6912F0400F18D05A6922F040025A61ED
:10291C00636B73B1124A5A63606BFFF7CDF80028F2
:10292C00AED0606B436B9847AAE72046FFF73AFF9F
:10293C00D9E72046FFF780FFA2E72046FFF77CFF90
:10294C009EE72046FFF778FF0023E36398E72046D5
:10295C00FFF721FE94E72046FFF717FF90E700BF33
:10296C007129000808B5406A0023C385C384FFF7AA
:10297C0063FF08BD7047000010B504460268D368B9
:10298C0023F0C003D36003685A6912F0800F17D08C
:10299C005A6922F080025A61036B4BB10D4A5A639B
:1029AC00006BFFF789F890B1206B436B98470EE0F2
:1029BC000023C384202380F83930FFF7DBFF06E0C7
:1029CC000023C384202380F83930FFF7D3FF002085
:1029DC0010BD00BFE529000808B5406A0023C38478
:1029EC00202380F83930FFF7C5FF08BD7047000081
:1029FC0010B504460268D36823F49073D360026860
:102A0C00536923F00103536103685A6912F0400FB4
:102A1C0017D05A6922F040025A61436B4BB10D4AF0
:102A2C005A63406BFFF748F890B1606B436B984763
:102A3C000EE00023C385202380F83A30FFF7D6FF41
:102A4C0006E00023C385202380F83A30FFF7CEFF41
:102A5C00002010BD652A000808B5406A0023C38514
:102A6C00202380F83A30FFF7C1FF08BD704738B516
:102A7C000B88052B01D0032038BD0C464378817898
:102A8C0041EA0321013189B2C378027942EA032277
:102A9C00531E9BB240F2CE75AB4220D8002323804C
:102AAC000123037023880133238012F0070F10D009
:102ABC00C2F3C7030133DDB2457023880133238091
:102ACC000023023000F052FD30B923882B442380C0
:102ADC00D2E7C2F3C705EFE700F0B9F9CCE7032062
:102AEC00CAE70B88052B01D0032070474378817807
:102AFC0041EA0321013189B20379F3B9C278531E3B
:102B0C00DBB2FD2B1BD900B583B000238DF805304B
:102B1C00FF2A0BD000238DF8043001231A4601A89C
:102B2C0000F024FD30B903B05DF804FB01238DF8EF
:102B3C000430F2E700F08BF9F5E70320704703202F
:102B4C0070470B88052B2AD970B50C4641788378D1
:102B5C0043EA0123013399B2C278037943EA022292
:102B6C00467913F0070F0CD0C2F3C7050135EDB24F
:102B7C00531E9BB2B3F5F66F13D2B54204D00320AB
:102B8C0070BDC2F3C705F3E70123063000F0EEFC7D
:102B9C0010B905232380F3E700F059F9F0E703207F
:102BAC0070470320ECE738B50B88052B01D00320C8
:102BBC0038BD0C464378817841EA0321013189B252
:102BCC00C378027942EA0322531E9BB240F2CE75BF
:102BDC00AB421FD8002323800223037023880133C8
:102BEC00238012F0070F0FD0C2F3C7030133DDB2FD
:102BFC004570238801332380023000F0B9FC30B9D2
:102C0C0023882B442380D3E7C2F3C705F0E700F0F9
:102C1C001EF9CDE70320CBE708B50B88052B01D0B7
:102C2C00032008BD4378817841EA03210131012357
:102C3C001A4689B2033000F05BFC0028F1D000F09A
:102C4C0006F9EEE738B50B88052B20D90C464178F0
:102C5C00837843EA0123013399B2C378027942EABB
:102C6C0003224579531E9BB2772B12D85300DBB24B
:102C7C00AB4201D003200BE00123063000F038FCFE
:102C8C0010B90523238003E000F0E1F800E00320F5
:102C9C0038BD0320FCE70B88052B01D003207047BF
:102CAC0070B50C464378817841EA0321013189B231
:102CBC00C378057945EA03256B1E9BB27C2B01D9A1
:102CCC00032070BD002323800646032206F8022B46
:102CDC002288013222806A004270228801322280CE
:102CEC002A46304600F004FC20B9238803EB450546
:102CFC002580E6E700F0ABF8E3E7F8B50B88092B85
:102D0C0045D904460D464378817841EA03210131C7
:102D1C008EB2C378077947EA03274379817941EA70
:102D2C000321013189B2C379027A42EA0322407A43
:102D3C007B1E9BB27C2B2CD86AB3792A2DD8B0EB96
:102D4C00420F01D0032023E0012304F10A0000F01C
:102D5C00CFFB034618B1D8B100F079F818E0288001
:102D6C002046172200F8022B2A8801322A807A008A
:102D7C0062702A8801322A803A46314600F0B8FB4C
:102D8C000028E8D12B8803EB47072F80E3E70020CE
:102D9C00F8BD0320FCE70320FAE70320F8E738B579
:102DAC000B88052B01D0032038BD0C464378817865
:102DBC0041EA0321013189B2C378057945EA03253B
:102DCC006B1E9BB27B2B01D90320EDE700232380E4
:102DDC000346042203F8022B2288013222806A0067
:102DEC0042702288013222802A46184600F05CFB91
:102DFC0020B9238803EB45052580D5E700F027F89B
:102E0C00D2E7000038B50D46054B1C882246054913
:102E1C00013000F041FE01342C80002038BD00BF91
:102E2C00F4000020D400002010B4CC0801239340FF
:102E3C009BB2013B025D2044407842EA002001F045
:102E4C000701084180B21840C0B210BC704701287D
:102E5C0005D0072805D008B1042070477047022020
:102E6C007047062070470000024B00221A700120A8
:102E7C00704700BFF70000200123034A1370034A78
:102E8C0010701846704700BFF7000020F6000020B5
:102E9C000346054A107830B1044A12781A70024B76
:102EAC0000221A7001207047F7000020F600002065
:102EBC00014B1860012070472803002010B50C4608
:102ECC0050B1012209490A4B1868FFF730FC44B194
:102EDC00084B1B68984710BD054B1868FFF788FD19
:102EEC00F5E7034B1868FFF747FDF4E7F8000020FF
:102EFC00280300203404002008B50A460146034B81
:102F0C001868FFF7F0FB012008BD00BF2803002064
:102F1C00024B1B7803700120704700BFF8000020A3
:102F2C0008B50268074B1B681B689A4200D008BDA5
:102F3C00054B1B68984701220449024B1868FFF7A0
:102F4C00F6FBF4E7280300203C040020F8000020E6
:102F5C0008B50268044B1B681B689A4200D008BD78
:102F6C00024B1B689847FAE7280300203404002022
:102F7C00024B1960024B1880012070472C03002073
:102F8C00FC00002008B5044B00221A80034B186883
:102F9C00FEF7FAFE08BD00BFFA0000202C0300204B
:102FAC0008B5024B1868FEF723FF08BD2C03002060
:102FBC0008B50268084B9A4200D008BD074A13882E
:102FCC009BB201339BB21380054A12889342F4D30F
:102FDC00044B1B689847F0E700080040FA000020FB
:102FEC00FC0000203804002072B6024A136801333A
:102FFC001360704700010020034A1368013B136003
:10300C0003B962B6704700BF0001002030B4FF2244
:10301C0015464B1E9CB249B110F8013B5340054A72
:10302C00D25C6A400449CD5C2146F2E742EA0520B5
:10303C0030BC7047143B0008143C000870B50E46B9
:10304C0014461D46FFF7D0FF2A4621463046FFF7AF
:10305C002FFF012804D00324FFF7CEFF204670BDBC
:10306C00B4F5964F0BD864000748B0FBF4F0294632
:10307C0080B2FFF77DFF012803D00324ECE7232067
:10308C00F5E70024E8E700BFA07F170008B5FFF7BD
:10309C00ABFF0021044B19700120FFF70FFFFFF766
:1030AC0071FFFFF7A9FF08BD0401002008B5FFF769
:1030BC009BFF00210846FFF701FFFFF771FFFFF7A9
:1030CC009BFF08BD70B506460D461446FFF78CFFF6
:1030DC000F4B1B889BB2032B04D80524FFF78CFFE6
:1030EC00204670BD0A4B198889B20A48FFF78EFF3B
:1030FC0058B9084A12F8013B3370054B1B889BB238
:10310C00033B23802A600024E8E70524E6E700BFA0
:10311C000C010020340300202DE9F04106460C463A
:10312C001546FFF761FF1C4B1B78DBB2012B05D05A
:10313C000524FFF761FF2046BDE8F081601E174BA8
:10314C001860174F4FF00108A7F8008004F8016CC5
:10315C003A8892B21544ADB23D80398889B2FFF7F6
:10316C0055FF3B889BB203EB080292B23A80C2B285
:10317C000C49CA543B889BB203EB080292B23A80CA
:10318C00C0F30720C854084B83F800804146002048
:10319C00FFF794FE0024CCE7040100200801002076
:1031AC000E010020340300200501002000B583B07F
:1031BC000DF10700FFF7ACFE1C4B1B78DBB2032BA9
:1031CC0005D8DFE803F0020B1D08FFF7DBFE00203B
:1031DC0003B05DF804FBFFF7D5FEF8E7144A0023B3
:1031EC00138013889BB2591C89B211809DF807106B
:1031FC00104AD1540D4B02221A70FFF7C3FEE6E7BA
:10320C000B4B1B889BB2FF2B0CD809490B889BB22C
:10321C005A1C92B20A809DF80710064AD154FFF747
:10322C00B1FED4E7014B03221A70F8E70401002029
:10323C000C0100203403002038B5144B1B7803F02C
:10324C00FF0423B1012C07D00024204638BD0021F7
:10325C000120FFF733FEF8E70D4B1B889BB24BB1F7
:10326C000B4D298889B20B4B1868FFF745FE0024DB
:10327C002C80EAE70820FFF7FFFD0446002101201F
:10328C00FFF71CFE014B00221A70DEE7050100203F
:10329C000E0100200801002010B50C4B1B785BB10F
:1032AC0003F0FF02022A0CD00024FFF779FE074B33
:1032BC0001221A70204610BD0120FFF7DDFD0446E7
:1032CC00F3E70220FFF7D8FD0446EEE704010020E7
:1032DC0038B5054608464C1EE4B2F62C2AD81146E1
:1032EC001A46174B18700DB1022424E0154B164CDE
:1032FC001C60164B164C1C60164B174C1C60174B65
:10330C00174C1C60174B00241C60174B174C1C608F
:10331C00174B184C1C60184B184C1C60049BFFF787
:10332C008DFE044638B9FFF79FFD30B1144B0122D6
:10333C001A7000E00224204638BD0324FBE700BFCE
:10334C0029010020200100209930000824010020D0
:10335C00B9300008180100202531000814010020A4
:10336C00D13000081C0100203C040020B9310008B9
:10337C00340400204532000838040020A53200082F
:10338C000C00002008B5064B1B78012B01D0062041
:10339C0008BD044B1B6898470020014B1870F7E7D9
:1033AC000C0000202001002070B582B0344B1C783A
:1033BC00002C5ED10DF10700FFF76AFD012802D049
:1033CC00204602B070BD9DF80730022B0BD0042BA9
:1033DC00F6D12C4B186801782B4B19702B4B012212
:1033EC001A70002316E02A4B1B682A4A25492A48E2
:1033FC00984705460028E3D1274B1B78274A1278BB
:10340C00934201D0002B36D10420FFF735FD2C461A
:10341C00D6E701330F2B0DDC214A12F833204AB1C9
:10342C009142F6D11E4A02EBC3035B6819499847D7
:10343C00164B1870184B1B78FBB1144B1B7873B1DF
:10344C00114A11780F480568124A0126168041F07E
:10345C0080012970006811888D1915804354114B17
:10346C001B680C4A1288074909680C480078984771
:10347C00A6E70624A4E70446A2E71C46A0E700BF83
:10348C000C0000202C01002028010020100100203D
:10349C0014010020320100203001002029010020FD
:1034AC00100000201801002030B40F4B1C884B1E5C
:1034BC009BB29918142915DC1B1B9BB27AB10B4DCE
:1034CC0035F81340240A014601F8024B15F8134055
:1034DC00447001339BB2013A92B20846EEE70020E9
:1034EC0030BC70470120FBE7380100207404002039
:1034FC0070B41C4C2588013989B28C18142C2DDC25
:10350C00491B89B293B1012B24D0002027E0164E21
:10351C0036F811502D0A044604F8025B16F81150C7
:10352C004570013189B2013A92B22046002AEED19F
:10353C00184614E0044614F8023B0B4D1B0225F808
:10354C0011304078034325F81130013189B2013A2A
:10355C0092B22046002AEDD1002000E0012070BC80
:10356C00704700BF360100204C040020012070473A
:10357C002DE9F0419046D508184B1A884F1EBFB262
:10358C0007EB0803012B02DD0120BDE8F0810446A6
:10359C000135BF1AC7F3CC0307F007070CE05E1C1C
:1035AC00B6B2082239460E481844FFF73DFC04F821
:1035BC00010B013DADB23346002DF0D108F00708E8
:1035CC0014F8013CC8F1080803FA08F3DBB243FA1B
:1035DC0008F804F8018C0020D7E700BF3401002064
:1035EC0048040020084A32F8103008490B8001309A
:1035FC0032F81000064A108043EA0040054B186070
:10360C00054B1860704700BF4C0400209C04002040
:10361C003A0100203C010020A004002082B001915E
:10362C00074B01AA1A60BDF80420064B23F81020A2
:10363C000130BDF8062023F8102002B0704700BFFF
:10364C00400100207404002010B5104C00224021D1
:10365C002046FEF713FA00224FF400712046FEF7C5
:10366C000DFA00224FF480712046FEF707FA002273
:10367C0020212046FEF702FA00230F2B05DC044A1A
:10368C00002122F813100133F7E710BD000C0140A4
:10369C007404002010B5FA20FDF796FD0B4C0022A7
:1036AC004FF400712046FEF7E9F941F28830FDF73E
:1036BC008BFD00F021F9064B00225A8001224FF4B9
:1036CC0000712046FEF7DAF910BD00BF000801407A
:1036DC004C04002070B5FA20FDF776FD0024174B42
:1036EC001C60174B1C60174E3046FEF74DFB164DF9
:1036FC0004212846FEF73CFE4FF4FA70FDF764FDFA
:10370C003046FEF775FB04212846FEF79BFE0F4D55
:10371C0022464FF400712846FEF7B0F941F288308A
:10372C00FDF752FD00F0E8F8094B5C8001224FF4E4
:10373C0000712846FEF7A2F970BD00BF54010020AD
:10374C004C0100209C020020540200200008014083
:10375C004C04002010B5FA20FDF736FD0B4C00226E
:10376C004FF480712046FEF789F941F28830FDF75D
:10377C002BFD00F001F9064B00225A8001224FF478
:10378C0080712046FEF77AF910BD00BF0008014099
:10379C004C04002070B5FA20FDF716FD0024174BE1
:1037AC001C60174B1C60174E3046FEF7EDFA164D99
:1037BC0008212846FEF7DCFD4FF4FA70FDF704FDF6
:1037CC003046FEF715FB08212846FEF73BFE0F4D51
:1037DC0022464FF480712846FEF750F941F28830AA
:1037EC00FDF7F2FC00F0C8F8094B5C8001224FF4A5
:1037FC0080712846FEF742F970BD00BF64010020BD
:10380C00600100200C02002054020020000801403E
:10381C004C04002038B5FA20FDF7D6FC00230E4AE4
:10382C0013600E4A13600E4D2846FEF7ADFA0D4C90
:10383C0004212046FEF79CFD4FF4FA60FDF7C4FC12
:10384C002846FEF7D5FA04212046FEF7FBFD102191
:10385C000548FEF719F938BD540100204C01002031
:10386C009C02002054020020000C014030B585B0B1
:10387C00ADF80E0000240F2C1DDC114D00224FF46E
:10388C0080512846FEF7FAF80220FDF79DFC0A232A
:10389C00009301230B4A0DF10E010B48FDF72DFB94
:1038AC000220FDF791FC01224FF480512846FEF7CF
:1038BC00E5F80134DFE7034B188805B030BD00BFD5
:1038CC00000C01409E0400206C01002082B001918C
:1038DC00074B01AA1A60BDF80420064B23F81020F0
:1038EC000130BDF8062023F8102002B0704700BF4D
:1038FC00440100207404002070B5174B1888FFF7A2
:10390C00B5FF164E3088FCF769FD154D2968FCF79C
:10391C00F7FB0446134B1868FCF760FD2146FCF7D7
:10392C00EFFB0146104B18600020FFF7CFFF0F4B49
:10393C001888FFF79BFF3088FCF750FD2968FCF7CF
:10394C00DFFB0B4B1968FCF7DBFB0146094B1860DE
:10395C000220FFF7BBFF70BD960000209E040020E4
:10396C00AC000020A4000020AC0400209400002037
:10397C0098000020A804002070B5194B1888FFF798
:10398C0075FF184E3088FCF729FD174D2968FCF798
:10399C00B7FB0446154B1868FCF720FD2146FCF7D5
:1039AC00AFFB0146124B18600420FFF78FFF114B41
:1039BC001888FFF75BFF3088FCF710FD2968FCF7CF
:1039CC009FFB0D4B1968FCF79BFB0C4B1968FCF724
:1039DC0097FB01460A4B18600620FFF777FF70BD76
:1039EC00920000209E040020AC000020A8000020C3
:1039FC00B0040020900000209C000020A0000020BB
:103A0C00A4040020002103E00B4B5B58435004310D
:103A1C000A480B4B42189A42F6D30A4A02E000239A
:103A2C0042F8043B084B9A42F9D3FFF71FF800F019
:103A3C000FF8FCF77BFD70471C3D000800000020D0
:103A4C00B0000020B0000020B4040020FEE700000D
:103A5C0070B500260C4D0D4C641BA410A64209D168
:103A6C0000F030F800260A4D0A4C641BA410A64244
:103A7C0005D170BD55F8043B98470136EEE755F873
:103A8C00043B98470136F2E7143D0008143D00084A
:103A9C00143D0008183D00080A44914200F1FF3320
:103AAC0000D1704710B511F8014B914203F8014F4A
:103ABC00F9D110BD03460244934200D1704703F87C
:103ACC00011BF9E7F8B500BFF8BC08BC9E4670476F
:0C3ADC00F8B500BFF8BC08BC9E4670475F
:103AE80002030405060708090A0B0C0D0E0F101037
:103AF80000000000000000000000000001020304B4
:103B080006070809000000000102030400C1814003
:103B180001C0804101C0804100C1814001C0804195
:103B280000C1814000C1814001C0804101C0804185
:103B380000C1814000C1814001C0804100C1814075
:103B480001C0804101C0804100C1814001C0804165
:103B580000C1814000C1814001C0804100C1814055
:103B680001C0804101C0804100C1814000C1814045
:103B780001C0804101C0804100C1814001C0804135
:103B880000C1814000C1814001C0804101C0804125
:103B980000C1814000C1814001C0804100C1814015
:103BA80001C0804101C0804100C1814000C1814005
:103BB80001C0804101C0804100C1814001C08041F5
:103BC80000C1814000C1814001C0804100C18140E5
:103BD80001C0804101C0804100C1814001C08041D5
:103BE80000C1814000C1814001C0804101C08041C5
:103BF80000C1814000C1814001C0804100C18140B5
:103C080001C0804101C0804100C1814000C0C101A4
:103C1800C30302C2C60607C705C5C404CC0C0DCD34
:103C28000FCFCE0E0ACACB0BC90908C8D81819D9A4
:103C38001BDBDA1A1EDEDF1FDD1D1CDC14D4D515D4
:103C4800D71716D6D21213D311D1D010F03031F1C4
:103C580033F3F23236F6F737F53534F43CFCFD3DF4
:103C6800FF3F3EFEFA3A3BFB39F9F83828E8E929E4
:103C7800EB2B2AEAEE2E2FEF2DEDEC2CE42425E594
:103C880027E7E62622E2E323E12120E0A06061A104
:103C980063A3A26266A6A767A56564A46CACAD6DB4
:103CA800AF6F6EAEAA6A6BAB69A9A86878B8B97924
:103CB800BB7B7ABABE7E7FBF7DBDBC7CB47475B554
:103CC80077B7B67672B2B373B17170B05090915144
:103CD8009353529296565797559594549C5C5D9D74
:103CE8005F9F9E5E5A9A9B5B995958988848498964
:103CF8004B8B8A4A4E8E8F4F8D4D4C8C4484854514
:0C3D080087474686824243834181804009
:043D1400B5040008EA
:043D1800910400080A
:103D1C0001000000100000000024F400020000006C
:103D2C0011000000112E000804000000AB2D00084B
:103D3C0003000000A32C000810000000512C000808
:103D4C0006000000252C000817000000072D0008B5
:103D5C00010000007B2A000805000000EF2A000883
:103D6C000F0000004F2B000802000000B32B0008CE
:103D7C000000000000000000000000000000000037
:103D8C000000000000000000000000000000000027
:103D9C000000000000000000000000000000000017
:103DAC0024F124F324F524F70000003F0000003F29
:103DBC000000803E02000000020000006F128338F9
:0400000508003A11A4
:00000001FF
